{
  "contractName": "Election",
  "abi": [
    {
      "inputs": [
        {
          "internalType": "string",
          "name": "_electionTitle",
          "type": "string"
        }
      ],
      "stateMutability": "nonpayable",
      "type": "constructor"
    },
    {
      "inputs": [
        {
          "internalType": "uint256",
          "name": "",
          "type": "uint256"
        }
      ],
      "name": "candidateList",
      "outputs": [
        {
          "internalType": "string",
          "name": "candidateName",
          "type": "string"
        },
        {
          "internalType": "uint256",
          "name": "voteCount",
          "type": "uint256"
        }
      ],
      "stateMutability": "view",
      "type": "function",
      "constant": true
    },
    {
      "inputs": [],
      "name": "contractOwner",
      "outputs": [
        {
          "internalType": "address",
          "name": "",
          "type": "address"
        }
      ],
      "stateMutability": "view",
      "type": "function",
      "constant": true
    },
    {
      "inputs": [],
      "name": "electionTitle",
      "outputs": [
        {
          "internalType": "string",
          "name": "",
          "type": "string"
        }
      ],
      "stateMutability": "view",
      "type": "function",
      "constant": true
    },
    {
      "inputs": [
        {
          "internalType": "address",
          "name": "",
          "type": "address"
        }
      ],
      "name": "eligibleVoters",
      "outputs": [
        {
          "internalType": "bool",
          "name": "isAuthorized",
          "type": "bool"
        },
        {
          "internalType": "bool",
          "name": "hasVoted",
          "type": "bool"
        },
        {
          "internalType": "uint256",
          "name": "voteIndex",
          "type": "uint256"
        }
      ],
      "stateMutability": "view",
      "type": "function",
      "constant": true
    },
    {
      "inputs": [],
      "name": "totalVotesCast",
      "outputs": [
        {
          "internalType": "uint256",
          "name": "",
          "type": "uint256"
        }
      ],
      "stateMutability": "view",
      "type": "function",
      "constant": true
    },
    {
      "inputs": [],
      "name": "getCandidates",
      "outputs": [
        {
          "components": [
            {
              "internalType": "string",
              "name": "candidateName",
              "type": "string"
            },
            {
              "internalType": "uint256",
              "name": "voteCount",
              "type": "uint256"
            }
          ],
          "internalType": "struct Election.Candidate[]",
          "name": "",
          "type": "tuple[]"
        }
      ],
      "stateMutability": "view",
      "type": "function",
      "constant": true
    },
    {
      "inputs": [
        {
          "internalType": "string",
          "name": "_candidateName",
          "type": "string"
        }
      ],
      "name": "addCandidate",
      "outputs": [],
      "stateMutability": "nonpayable",
      "type": "function"
    },
    {
      "inputs": [],
      "name": "getCandidateCount",
      "outputs": [
        {
          "internalType": "uint256",
          "name": "",
          "type": "uint256"
        }
      ],
      "stateMutability": "view",
      "type": "function",
      "constant": true
    },
    {
      "inputs": [
        {
          "internalType": "address",
          "name": "_voterAddress",
          "type": "address"
        }
      ],
      "name": "authorizeVoter",
      "outputs": [],
      "stateMutability": "nonpayable",
      "type": "function"
    },
    {
      "inputs": [
        {
          "internalType": "uint256",
          "name": "_voteIndex",
          "type": "uint256"
        }
      ],
      "name": "castVote",
      "outputs": [],
      "stateMutability": "nonpayable",
      "type": "function"
    },
    {
      "inputs": [],
      "name": "endElection",
      "outputs": [],
      "stateMutability": "nonpayable",
      "type": "function"
    }
  ],
  "bytecode": "0x60806040523480156200001157600080fd5b506040516200150b3803806200150b8339818101604052810190620000379190620001b9565b336000806101000a81548173ffffffffffffffffffffffffffffffffffffffff021916908373ffffffffffffffffffffffffffffffffffffffff16021790555080600190805190602001906200008f92919062000097565b50506200032f565b828054620000a5906200029b565b90600052602060002090601f016020900481019282620000c9576000855562000115565b82601f10620000e457805160ff191683800117855562000115565b8280016001018555821562000115579182015b8281111562000114578251825591602001919060010190620000f7565b5b50905062000124919062000128565b5090565b5b808211156200014357600081600090555060010162000129565b5090565b60006200015e620001588462000232565b620001fe565b9050828152602081018484840111156200017757600080fd5b6200018484828562000265565b509392505050565b600082601f8301126200019e57600080fd5b8151620001b084826020860162000147565b91505092915050565b600060208284031215620001cc57600080fd5b600082015167ffffffffffffffff811115620001e757600080fd5b620001f5848285016200018c565b91505092915050565b6000604051905081810181811067ffffffffffffffff8211171562000228576200022762000300565b5b8060405250919050565b600067ffffffffffffffff82111562000250576200024f62000300565b5b601f19601f8301169050602081019050919050565b60005b838110156200028557808201518184015260208101905062000268565b8381111562000295576000848401525b50505050565b60006002820490506001821680620002b457607f821691505b60208210811415620002cb57620002ca620002d1565b5b50919050565b7f4e487b7100000000000000000000000000000000000000000000000000000000600052602260045260246000fd5b7f4e487b7100000000000000000000000000000000000000000000000000000000600052604160045260246000fd5b6111cc806200033f6000396000f3fe608060405234801561001057600080fd5b50600436106100a95760003560e01c80637de418d5116100715780637de418d51461012c578063b13c744b1461014a578063c546c3b21461017b578063ce606ee014610199578063e8efd480146101b7578063fd47b368146101e9576100a9565b806306a49fce146100ae57806330a56347146100cc5780633eb76b9c146100ea578063462e91ec1461010657806359f7846814610122575b600080fd5b6100b6610205565b6040516100c39190610dcb565b60405180910390f35b6100d4610300565b6040516100e19190610ed6565b60405180910390f35b61010460048036038101906100ff9190610b53565b61030d565b005b610120600480360381019061011b9190610b12565b61054e565b005b61012a610649565b005b610134610710565b6040516101419190610ed6565b60405180910390f35b610164600480360381019061015f9190610b53565b610716565b604051610172929190610e46565b60405180910390f35b6101836107d2565b6040516101909190610e24565b60405180910390f35b6101a1610860565b6040516101ae9190610db0565b60405180910390f35b6101d160048036038101906101cc9190610ae9565b610884565b6040516101e093929190610ded565b60405180910390f35b61020360048036038101906101fe9190610ae9565b6108c8565b005b60606003805480602002602001604051908101604052809291908181526020016000905b828210156102f7578382906000526020600020906002020160405180604001604052908160008201805461025c90611098565b80601f016020809104026020016040519081016040528092919081815260200182805461028890611098565b80156102d55780601f106102aa576101008083540402835291602001916102d5565b820191906000526020600020905b8154815290600101906020018083116102b857829003601f168201915b5050505050815260200160018201548152505081526020019060010190610229565b50505050905090565b6000600380549050905090565b600260003373ffffffffffffffffffffffffffffffffffffffff1673ffffffffffffffffffffffffffffffffffffffff16815260200190815260200160002060000160019054906101000a900460ff161561039d576040517f08c379a000000000000000000000000000000000000000000000000000000000815260040161039490610e76565b60405180910390fd5b600260003373ffffffffffffffffffffffffffffffffffffffff1673ffffffffffffffffffffffffffffffffffffffff16815260200190815260200160002060000160009054906101000a900460ff1661042c576040517f08c379a000000000000000000000000000000000000000000000000000000000815260040161042390610eb6565b60405180910390fd5b80600260003373ffffffffffffffffffffffffffffffffffffffff1673ffffffffffffffffffffffffffffffffffffffff168152602001908152602001600020600101819055506001600260003373ffffffffffffffffffffffffffffffffffffffff1673ffffffffffffffffffffffffffffffffffffffff16815260200190815260200160002060000160016101000a81548160ff02191690831515021790555060016003828154811061050a577f4e487b7100000000000000000000000000000000000000000000000000000000600052603260045260246000fd5b9060005260206000209060020201600101600082825461052a9190610fb8565b925050819055506001600460008282546105449190610fb8565b9250508190555050565b60008054906101000a900473ffffffffffffffffffffffffffffffffffffffff1673ffffffffffffffffffffffffffffffffffffffff163373ffffffffffffffffffffffffffffffffffffffff16146105dc576040517f08c379a00000000000000000000000000000000000000000000000000000000081526004016105d390610e96565b60405180910390fd5b600360405180604001604052808381526020016000815250908060018154018082558091505060019003906000526020600020906002020160009091909190915060008201518160000190805190602001906106399291906109b4565b5060208201518160010155505050565b60008054906101000a900473ffffffffffffffffffffffffffffffffffffffff1673ffffffffffffffffffffffffffffffffffffffff163373ffffffffffffffffffffffffffffffffffffffff16146106d7576040517f08c379a00000000000000000000000000000000000000000000000000000000081526004016106ce90610e96565b60405180910390fd5b60008054906101000a900473ffffffffffffffffffffffffffffffffffffffff1673ffffffffffffffffffffffffffffffffffffffff16ff5b60045481565b6003818154811061072657600080fd5b906000526020600020906002020160009150905080600001805461074990611098565b80601f016020809104026020016040519081016040528092919081815260200182805461077590611098565b80156107c25780601f10610797576101008083540402835291602001916107c2565b820191906000526020600020905b8154815290600101906020018083116107a557829003601f168201915b5050505050908060010154905082565b600180546107df90611098565b80601f016020809104026020016040519081016040528092919081815260200182805461080b90611098565b80156108585780601f1061082d57610100808354040283529160200191610858565b820191906000526020600020905b81548152906001019060200180831161083b57829003601f168201915b505050505081565b60008054906101000a900473ffffffffffffffffffffffffffffffffffffffff1681565b60026020528060005260406000206000915090508060000160009054906101000a900460ff16908060000160019054906101000a900460ff16908060010154905083565b60008054906101000a900473ffffffffffffffffffffffffffffffffffffffff1673ffffffffffffffffffffffffffffffffffffffff163373ffffffffffffffffffffffffffffffffffffffff1614610956576040517f08c379a000000000000000000000000000000000000000000000000000000000815260040161094d90610e96565b60405180910390fd5b6001600260008373ffffffffffffffffffffffffffffffffffffffff1673ffffffffffffffffffffffffffffffffffffffff16815260200190815260200160002060000160006101000a81548160ff02191690831515021790555050565b8280546109c090611098565b90600052602060002090601f0160209004810192826109e25760008555610a29565b82601f106109fb57805160ff1916838001178555610a29565b82800160010185558215610a29579182015b82811115610a28578251825591602001919060010190610a0d565b5b509050610a369190610a3a565b5090565b5b80821115610a53576000816000905550600101610a3b565b5090565b6000610a6a610a6584610f22565b610ef1565b905082815260208101848484011115610a8257600080fd5b610a8d848285611056565b509392505050565b600081359050610aa481611168565b92915050565b600082601f830112610abb57600080fd5b8135610acb848260208601610a57565b91505092915050565b600081359050610ae38161117f565b92915050565b600060208284031215610afb57600080fd5b6000610b0984828501610a95565b91505092915050565b600060208284031215610b2457600080fd5b600082013567ffffffffffffffff811115610b3e57600080fd5b610b4a84828501610aaa565b91505092915050565b600060208284031215610b6557600080fd5b6000610b7384828501610ad4565b91505092915050565b6000610b888383610d55565b905092915050565b610b998161100e565b82525050565b6000610baa82610f62565b610bb48185610f85565b935083602082028501610bc685610f52565b8060005b85811015610c025784840389528151610be38582610b7c565b9450610bee83610f78565b925060208a01995050600181019050610bca565b50829750879550505050505092915050565b610c1d81611020565b82525050565b6000610c2e82610f6d565b610c388185610f96565b9350610c48818560208601611065565b610c5181611157565b840191505092915050565b6000610c6782610f6d565b610c718185610fa7565b9350610c81818560208601611065565b610c8a81611157565b840191505092915050565b6000610ca2600d83610fa7565b91507f416c726561647920766f746564000000000000000000000000000000000000006000830152602082019050919050565b6000610ce2600d83610fa7565b91507f4e6f7420746865206f776e6572000000000000000000000000000000000000006000830152602082019050919050565b6000610d22601683610fa7565b91507f4e6f7420617574686f72697a656420746f20766f7465000000000000000000006000830152602082019050919050565b60006040830160008301518482036000860152610d728282610c23565b9150506020830151610d876020860182610d92565b508091505092915050565b610d9b8161104c565b82525050565b610daa8161104c565b82525050565b6000602082019050610dc56000830184610b90565b92915050565b60006020820190508181036000830152610de58184610b9f565b905092915050565b6000606082019050610e026000830186610c14565b610e0f6020830185610c14565b610e1c6040830184610da1565b949350505050565b60006020820190508181036000830152610e3e8184610c5c565b905092915050565b60006040820190508181036000830152610e608185610c5c565b9050610e6f6020830184610da1565b9392505050565b60006020820190508181036000830152610e8f81610c95565b9050919050565b60006020820190508181036000830152610eaf81610cd5565b9050919050565b60006020820190508181036000830152610ecf81610d15565b9050919050565b6000602082019050610eeb6000830184610da1565b92915050565b6000604051905081810181811067ffffffffffffffff82111715610f1857610f17611128565b5b8060405250919050565b600067ffffffffffffffff821115610f3d57610f3c611128565b5b601f19601f8301169050602081019050919050565b6000819050602082019050919050565b600081519050919050565b600081519050919050565b6000602082019050919050565b600082825260208201905092915050565b600082825260208201905092915050565b600082825260208201905092915050565b6000610fc38261104c565b9150610fce8361104c565b9250827fffffffffffffffffffffffffffffffffffffffffffffffffffffffffffffffff03821115611003576110026110ca565b5b828201905092915050565b60006110198261102c565b9050919050565b60008115159050919050565b600073ffffffffffffffffffffffffffffffffffffffff82169050919050565b6000819050919050565b82818337600083830152505050565b60005b83811015611083578082015181840152602081019050611068565b83811115611092576000848401525b50505050565b600060028204905060018216806110b057607f821691505b602082108114156110c4576110c36110f9565b5b50919050565b7f4e487b7100000000000000000000000000000000000000000000000000000000600052601160045260246000fd5b7f4e487b7100000000000000000000000000000000000000000000000000000000600052602260045260246000fd5b7f4e487b7100000000000000000000000000000000000000000000000000000000600052604160045260246000fd5b6000601f19601f8301169050919050565b6111718161100e565b811461117c57600080fd5b50565b6111888161104c565b811461119357600080fd5b5056fea26469706673582212201f3cfbb773a9b710de27958ac0eb8c98c6d0afeecacdcd723fd05bc0370b2f3c64736f6c63430008000033",
  "immutableReferences": {},
  "source": "pragma solidity ^0.8.0;\n\ncontract Election {\n    struct Candidate {\n        string candidateName;\n        uint256 voteCount;\n    }\n\n    struct Voter {\n        bool isAuthorized;\n        bool hasVoted;\n        uint256 voteIndex;\n    }\n\n    address public contractOwner;\n    string public electionTitle;\n\n    mapping(address => Voter) public eligibleVoters;\n    Candidate[] public candidateList;\n    uint256 public totalVotesCast;\n\n    modifier onlyOwner() {\n        require(msg.sender == contractOwner, \"Not the owner\");\n        _;\n    }\n\n    constructor(string memory _electionTitle) {\n        contractOwner = msg.sender;\n        electionTitle = _electionTitle;\n    }\n\n    function getCandidates() public view returns (Candidate[] memory){\n        return candidateList;\n    }\n    function addCandidate(string memory _candidateName) public onlyOwner {\n        candidateList.push(Candidate({candidateName: _candidateName, voteCount: 0}));\n    }\n\n    function getCandidateCount() public view returns (uint256) {\n        return candidateList.length;\n    }\n\n    function authorizeVoter(address _voterAddress) public onlyOwner {\n        eligibleVoters[_voterAddress].isAuthorized = true;\n    }\n\n    function castVote(uint256 _voteIndex) public {\n        require(!eligibleVoters[msg.sender].hasVoted, \"Already voted\");\n        require(eligibleVoters[msg.sender].isAuthorized, \"Not authorized to vote\");\n\n        eligibleVoters[msg.sender].voteIndex = _voteIndex;\n        eligibleVoters[msg.sender].hasVoted = true;\n        candidateList[_voteIndex].voteCount += 1;\n        totalVotesCast += 1;\n    }\n\n    function endElection() public onlyOwner {\n        selfdestruct(payable(contractOwner));\n    }\n}\n",
  "sourcePath": "/home/election/smart_contract/contracts/Election.sol",
  "compiler": {
    "name": "solc",
    "version": "0.8.0+commit.c7dfd78e.Emscripten.clang"
  },
  "schemaVersion": "3.4.16",
  "updatedAt": "2023-12-10T17:57:24.806Z",
  "networkType": "ethereum",
  "devdoc": {
    "kind": "dev",
    "methods": {},
    "version": 1
  },
  "userdoc": {
    "kind": "user",
    "methods": {},
    "version": 1
  }
}